:020000040800F2
:10000000287B07240504000853750008E73800081A
:1000100011040008B50900089588000800000000D8
:10002000000000000000000000000000490300087C
:10003000D5090008000000009D030008C97A0008E7
:100040001F0400081F0400081F0400081F04000804
:100050001F0400081F0400081F0400081F040008F4
:100060001F0400081F0400081F0400081F040008E4
:100070001F0400081F0400081F0400081F040008D4
:100080001F0400081F0400081F0400081F040008C4
:100090001F0400081F0400081F0400081F040008B4
:1000A0001F0400081F0400081F0400081F040008A4
:1000B0001F0400081F0400081F0400081F04000894
:1000C0001F0400081F0400081F0400081F04000884
:1000D0001F040008458800081F0400081F040008CA
:1000E0001F0400081F040008000000001F0400088F
:1000F0001F0400081F0400081F0400081F04000854
:100100001F0400081F0400081F0400081F04000843
:100110001F0400081F0400081F0400081F04000833
:100120001F0400081F0400081F0400081F04000823
:100130001F0400081F0400081F0400081F04000813
:1001400000000000000000000000000000000000AF
:100150001F0400081F0400081F0400081F040008F3
:100160001F0400081F0400081F0400081F040008E3
:100170001F0400081F0400081F04000800000000FE
:100180001F0400081F0400081F0400081F040008C3
:100190001F0400081F0400081F0400081F040008B3
:1001A0001F0400081F0400081F0400081F040008A3
:1001B0001F0400081F0400081F0400081F04000893
:1001C0001F0400081F0400081F0400081F04000883
:1001D0001F0400081F0400081F0400081F04000873
:1001E0001F0400081F0400081F0400081F04000863
:1001F0001F0400081F0400081F0400081F04000853
:100200001F0400081F0400081F0400081F04000842
:100210001F0400081F0400081F0400081F04000832
:100220001F0400081F0400081F040008000000004D
:100230001F0400081F040008000000001F0400083D
:100240001F0400081F0400081F0400081F04000802
:100250001F0400081F0400081F0400081F040008F2
:100260001F0400081F0400081F0400081F040008E2
:100270001F0400081F0400081F04000800000000FD
:100280001F040008000000001F0400080000000018
:10029000000000001F04000800F002F800F044F81D
:1002A0000AA090E8000C82448344AAF10107DA45D1
:1002B00001D100F039F8AFF2090EBAE80F0013F0DF
:1002C000010F18BFFB1A43F001031847C4D8000000
:1002D000E4D80000103A24BF78C878C1FAD8520791
:1002E00024BF30C830C144BF04680C6070470000B0
:1002F0000023002400250026103A28BF78C1FBD82F
:10030000520728BF30C148BF0B607047642900F016
:100310005981782900F09281002070471FB508F0BC
:10032000C3FF1FBD10B510BD00F012FB1146FFF753
:10033000F5FF08F01FFB00F030FB03B4FFF7F2FFFE
:1003400003BC08F0CCFA00002B4B19680868B0E831
:10035000F04F80F30988BFF36F8F4FF0000080F3F8
:10036000118870470000000006480068006880F3AC
:10037000088862B661B6BFF34F8FBFF36F8F00DF9F
:1003800000BF00BF08ED00E0DFF80C00016841F499
:1003900070010160704700BF88ED00E0EFF3098055
:1003A000BFF36F8F144B1A681EF0100F08BF20EDBB
:1003B000108A20E9F04F106008B44FF0400072B688
:1003C00080F31188BFF34F8FBFF36F8F62B608F0D1
:1003D00081FE4FF0000080F3118808BC196808689E
:1003E000B0E8F04F1EF0100F08BFB0EC108A80F399
:1003F0000988BFF36F8F70478C000024EFF30580EE
:10040000704700000948804709480047FEE7FEE7BB
:10041000FEE7FEE7FEE7FEE7FEE7FEE7FEE7FEE7B4
:1004200004480549054A064B70470000DD7A00087C
:100430009902000828750724287B072428770724B9
:100440002877072453EA020C00F069802DE9F04B6D
:100450004FF00006002B1FBFB3FA83F503FA05F433
:1004600024FA05F65E4012BF1643B2FA82F502FA8C
:1004700005F4C5F120051EBF22FA05FC44EA0C0470
:10048000203556EA044C4FEA144418BF641C4FF060
:1004900000084FF00009904271EB030C39D300299A
:1004A00019BFB1FA81F701FA07F6B0FA80F700FA3E
:1004B00007F6C7F120071EBF20FA07FC46EA0C0624
:1004C0002037B6FBF4FCA7EB0507103F07F01F0B26
:1004D000CBF120060CFA0BFB2CFA06F644BFB34610
:1004E0000026202FA4BF5E464FF0000B5BEA060CEF
:1004F00008BF4FF0010B19EB0B09ABFB027C48EB7B
:100500000608C01B06FB02CC0BFB03CC71EB0C01F5
:10051000C1E70B46024641464846BDE8F08B13B59D
:100520004FF000004FF00001AFF30080BDE81C4029
:10053000704700000FB4044910B503AA029800F0F8
:10054000F1F910BC5DF814FB280000240FB41CB5B1
:10055000074B06AA7B4469460090059800F0C9F94C
:100560000020694600F0D8F91CBC5DF814FB0000BF
:10057000C103000070B5044685690068C10601D555
:10058000302600E02026C00707D070BDD4E9012145
:1005900030469047206A401C20626D1EF6D570BD23
:1005A00070B5044685690078C00707D170BDD4E9ED
:1005B000012120209047206A401C20626D1EF6D544
:1005C00070BD00002DE9F041064600241068752931
:1005D000314616A510D0AFF30080002802DA404261
:1005E00013A507E031688A0701D512A502E0490783
:1005F00004D511A5012401E0AFF3008000210A22F7
:1006000006F1240709E0B0FBF2FCB0FBF2F302FBB9
:100610001C00303078541846491C0028F3D123467A
:100620002A463046BDE8F04100F005B90000000060
:100630002D0000002B0000002000000070B50446D3
:100640000D4621461068AFF300802188090502D5C8
:100650000F4A7A4402E00E4A7A440E32002104F135
:10066000240305E000F00F060009965D5E54491C66
:100670000028F7D120780023000704D5702D02D080
:1006800009B1022311322046BDE8704000F0D3B812
:10069000B6D400002DE9F05F894604464FF0000A09
:1006A000DFF824B1FB44C0F820A02046E168884769
:1006B00000287DD0252806D0D4E901219047206A62
:1006C000401C2062F1E700255F462046E16888472C
:1006D0002028064607DB312E05D2B81910F8200C69
:1006E00008B10543F1E7A80701D525F00405C4F8D2
:1006F0001CA00027C4F818A02A2E09D0304608F004
:10070000E7F838B304EB8708303EC8F8186019E002
:1007100059F8041B204604EB87029161E168884781
:10072000012F064618D1E069002820DA25F02005BF
:100730001DE0D8F8180000EB800006EB40003038D0
:10074000C8F818002046E1688847064608F0C0F857
:100750000028EED1012F0AD02E2E08D12046E168C4
:1007600088477F1C0646022F45F02005C4DBA069A0
:10077000002803DA404245F00105A061E80701D0F6
:1007800025F01005A6B1A6F14100192802D820369F
:1007900045F400654A463146204625604D46FFF740
:1007A000B5FD60B1012807D0ED1D25F0070000E080
:1007B00007E000F1080978E705F1040975E730461C
:1007C0007AE7206ABDE8F09F8CD4000010B5203A8B
:1007D000C0F00B80B1E81850203AA0E81850B1E8FA
:1007E0001850A0E81850BFF4F5AF5FEA027C24BFB0
:1007F000B1E81850A0E8185044BF18C918C0BDE8A7
:1008000010405FEA827C24BF51F8043B40F8043B6F
:1008100008BF7047D20728BF31F8023B48BF11F824
:10082000012B28BF20F8023B48BF00F8012B70477E
:100830007047704770472DE9F0470D46994692463C
:10084000044600F124080168880604D5E06921F017
:100850001001216000E00120A84201DD471B00E0FB
:100860000027A1697A1902EB0900081AA061207813
:10087000C00602D42046FFF77DFE002608E0D4E93A
:1008800001211AF806009047206A401C761C20625D
:100890004E45F4DB2078C0060AD52046FFF76AFEF5
:1008A00006E0D4E9012130209047206A401C2062F4
:1008B000381EA7F10107F4DC07E0D4E9012118F89C
:1008C00005009047206A401C2062281EA5F1010502
:1008D000F3DC2046FFF764FE2078000602D50220F4
:1008E000BDE8F0870120FBE701694A1C0261087836
:1008F000704700B58FB0CDE9013100210591054960
:100900007944CDE9031011466846FFF7C3FE0FB0E6
:1009100000BD0000E5FFFFFF0A6802F8010B0A6056
:1009200070470000074B70B50D467B44FFF7E1FFB1
:100930000446284600F008F810B14FF0FF3070BDB3
:10094000204670BD2B800000007B00F080007047C7
:10095000754600F02BF8AE4605006946534620F078
:100960000700854618B020B5FFF75AFDBDE82040C6
:100970004FF000064FF000074FF000084FF0000B5B
:1009800021F00701AC46ACE8C009ACE8C009ACE80E
:10099000C009ACE8C0098D46704710B50446AFF3F6
:1009A00000802046BDE81040FFF7C7BC00487047F4
:1009B000C874072400BFFEE710B506F049FF06F033
:1009C000F9FE0348006840F004000149086010BDCA
:1009D0009CEF00E07047000070B504461D46002300
:1009E000B5F5804F13D154F822300C480340D1E9BB
:1009F000000640EA06108E6840EA06208E8940EA2A
:100A000006408E693043034344F8223003E06FF020
:100A1000704044F82200002070BD00000000F0CFBC
:100A200010B502460023086852F820301B480340E6
:100A3000D1E901042043CC6820430C6920434C6970
:100A400020438C692043CC6920430C6A20434C6AC4
:100A500020438C6A2043CC6A20430C6B20438C6B70
:100A600020434C6B204303438868082801D143F09E
:100A70004003086842F82030086BB0F5801F05D1AC
:100A8000086818B110680C6B20431060086818B132
:100A900010684C6B20431060002010BD8004C0FF24
:100AA00030B5034614460022601C53F8202002F0A3
:100AB0004042D1E9000540EA05108D6840EA052072
:100AC0008D8940EA0545088A401E45EA0055087DA3
:100AD000801E45EA00608D6928430243601C43F88C
:100AE0002020186800F4801038B1586820F4700293
:100AF000088A401E42EA00525A60002030BD30B5DC
:100B00000246002300240868012816D013686FF3FA
:100B10000E03D1E901052843CD6828430D69284318
:100B20004D6928438D692843CD6928430D6A2843C0
:100B30004D6A28430343136019E0136823F4F84314
:100B4000D1E9070528434D6A2843034354686FF3EE
:100B50000E04D1E901052843CD6828430D692843D7
:100B60004D6928438D692843044313605460002075
:100B700030BD0246506940EA410050610020704794
:100B800018B5034600200090D1E9000420438C688A
:100B9000641E40EA4410CC6840EA4420009000986B
:100BA0001861002018BD000070B5034615460022EC
:100BB0000024012D1FD09A6802F070420868401E80
:100BC0004E68761E40EA06168868401E46EA0026F1
:100BD000C868401E46EA0036088A401E46EA0046BB
:100BE000888A401E46EA0056087E401E46EA00609B
:100BF00002439A6022E09A6811480240C868401E89
:100C00000603888A401E46EA00500243DC6804F06E
:100C100070440868401E4E68761E40EA06168868D2
:100C2000401E46EA0026088A401E46EA0046087E24
:100C3000401E46EA006004439A60DC60002070BDFC
:100C4000FF0F0FFF10B504460CB9012010BD94F83A
:100C50003500022803D0802060650120F6E7344982
:100C60002068884205D333492068884201D8012092
:100C700000E00020C0B1042084F835002C49206831
:100C800088420AD32B492068884206D82068006829
:100C900020F001002168086048E02068006820F02A
:100CA00001002168086041E02068006820F00E0023
:100CB000216808601E49206888420AD31D492068BF
:100CC000884206D82068006820F00100216808608A
:100CD00005E02068006820F0010021680860206EAF
:100CE000006820F48070216E086094F85C10012088
:100CF000884011490860D4E919104860E06E40B19D
:100D0000E06E006820F48070E16E0860D4E91C1089
:100D1000486000BF002084F8340000BF012084F840
:100D20003500206D10B12046216D884700208DE7E9
:100D300010000240B80402400454025803480068FE
:100D400040F001000149086070470000200400588D
:100D5000F8B502460B460021002600240020824DF3
:100D600000BFFCE0012707FA01F61F6807EA060446
:100D7000B4427CD15F68022F02D05F68122F1AD173
:100D80004FEAD10C02F1200757F82C004F074FEA29
:100D9000D76C0F2707FA0CF7B8434FEA417C4FEAAC
:100DA000DC6C1F6907FA0CF738434FEAD10C02F1EB
:100DB000200747F82C0010684FEA410C032707FA78
:100DC0000CF7B8431F7907F003074FEA410C07FA05
:100DD0000CF7384310605F68012F08D05F68022F5E
:100DE00005D05F68112F02D05F68122F17D190686D
:100DF0004FEA410C032707FA0CF7B8434FEA410CBE
:100E0000DF6807FA0CF738439060506801278F407D
:100E1000B8431F79C7F300178F4038435060D0683C
:100E20004FEA410C032707FA0CF7B8434FEA410C8D
:100E30009F6807FA0CF73843D0605F6807F0805767
:100E4000B7F1805F95D100BF484F3F6847F0020778
:100E5000DFF818C1CCF8007067463F6807F002075A
:100E6000009700BF00BF424F4FEA910C00E075E0D1
:100E700057F82C008F074FEA177C0F2707FA0CF75B
:100E8000B8433C4FBA4201D100272DE03A4FBA4255
:100E900001D1012728E0394FBA4201D1022723E0CE
:100EA000374FBA4201D103271EE0364FBA4201D173
:100EB000042719E0344FBA4201D1052714E0334F1B
:100EC000BA4201D106270FE0314FBA4201D10727BC
:100ED0000AE0304FBA4201D1082705E02E4FBA424E
:100EE00001D1092700E00A274FEA817C4FEA1C7CE8
:100EF00007FA0CF738431E4F4FEA910C47F82C00C5
:100F00002868A0435F6807F48037B7F5803F00D1B9
:100F1000204328606868A0435F6807F40037B7F58E
:100F2000003F00D1204368604FF0B0473868A043CD
:100F30005F6807F48017B7F5801F00D120434FF09A
:100F4000B04738607868A0435F6807F40017B7F5CA
:100F5000001F00D120434FF0B0477860491C102992
:100F6000FFF400AFF8BD000080000058F4440258C0
:100F700008040058000002580004025800080258F3
:100F8000000C0258001002580014025800180258B1
:100F9000001C02580020025800240258024613691F
:100FA0000B400BB1012000E00020704742694A402D
:100FB000426170470AB1018300E04183704700003D
:100FC00001480068704700003000002403480068B2
:100FD000034909780844014908607047300000243B
:100FE0003800002410B5032000F0AEFA0F2000F006
:100FF00007F808B1012010BD00F058FA0020FAE708
:1010000070B504460E4800784FF47A71B1FBF0F0E9
:101010000C490968B1FBF0F5284602F023FA08B143
:10102000012070BD102C07D200222146501E00F076
:101030004EFA0548046001E00120F2E70020F0E7E5
:1010400038000024180000243400002470B5044641
:101050000E46154600BF94F8A000012801D10220D9
:1010600070BD012084F8A00000BF022084F8A10018
:1010700005EB850101EBC50204F1380101EB8200AB
:1010800034223146FFF7A2FB2A463146204606F0BD
:1010900057F901202168486284F8A10000BF0020B0
:1010A00084F8A00000BF00BFDAE7000070B5044676
:1010B000002500260CB9012070BD94F8A10028B9C4
:1010C000002084F8A000204600F07EF8022084F87A
:1010D000A1002068806920F0704021688861D4E90F
:1010E00001010843E16808432169084321688969CF
:1010F0000843216888612068806832490840216877
:101100008860A08A050420688068A1692943084393
:10111000216888602068C0682A4908402168C86042
:10112000A08B05042068C068216A29430843216810
:10113000C860206800692349084021680861A08CC4
:10114000050420680069A16A2943084321680861F1
:10115000206840691B49084021684861A08D05044A
:1011600020684069216B294308432168486194F84D
:101170003500050294F8360006042068C06A00F0C5
:101180007F402168C86246EA050094F8341008439D
:101190002168C96A08432168C8622068406B40F032
:1011A0000600216848632068806940F001002168DA
:1011B00088610020C4F8A400012084F8A100002068
:1011C0007AE7000000F800F010B586B0044600BFD2
:1011D0004848006840F00800464908600846006832
:1011E00000F00800009000BF00BF00BF4148103869
:1011F000006840F010003F49103908600846006858
:1012000000F01000009000BF00BF00BF3948001F71
:10121000006840F002003749091F0860084600686E
:1012200000F00200009000BF00BF00BF0846006849
:1012300040F0200008600846006800F020000090A0
:1012400000BF00BF00BF0846006840F040000860D3
:101250000846006800F04000009000BF00BF00BFDB
:101260000846006840F0800008600846006800F00A
:101270008000009000BF00BF00BF0846006840F437
:10128000807008600846006800F48070009000BF1D
:1012900000BF2020019001200290039003200490C1
:1012A00001A91548FFF754FD4FF48060019002201A
:1012B000029000200390032004900E20059001A9C5
:1012C0000E48FFF745FD4FF40C60019001A90C4852
:1012D000FFF73EFD4FF47E40019001A90948FFF75A
:1012E00037FD40F2F760019001A90748FFF730FD94
:1012F00006B010BDE444025800040258001402581D
:1013000000180258001C0258002002582DE9F04134
:1013100004460E461746984600BF94F8A0000128E0
:1013200002D10220BDE8F081012084F8A00000BFB6
:10133000022084F8A10008EB880000EBC80104F14A
:10134000380000EB81052E60A86A30446860AF6009
:10135000E86A3844E86042462946204605F0F0FF36
:1013600001202168486284F8A10000BF002084F8B1
:10137000A00000BF00BFD5E72DE9F04104460E46AE
:101380001746984600BF94F8A000012802D1022019
:10139000BDE8F081012084F8A00000BF022084F89D
:1013A000A10008EB880000EBC80104F1380000EB55
:1013B0008105286830446860A8683844E860AE62F7
:1013C000EF6242462946204605F0BAFF0120216817
:1013D000486284F8A10000BF002084F8A00000BF8C
:1013E00000BFD5E74178154A11600178F9B1121DA7
:1013F00041681160017B0907C27A41EA0261827A81
:1014000041EAC241427B41EA8241827B41EA424158
:10141000C27B41EA0241427A41EA0221027A41EA70
:10142000420102781143054A0832116005E00021AB
:10143000024A121D1160121D1160704798ED00E004
:1014400000BF00BF00BFBFF35F8F00BF00BF00BF82
:101450000548006820F480300349086000200249F4
:10146000703108607047000024ED00E040F0010199
:101470000D4A11600C497039096841F480310A4AFB
:10148000703A116000BF00BF00BFBFF34F8F00BFB5
:1014900000BF00BF00BF00BF00BFBFF36F8F00BF22
:1014A00000BF00BF7047000094ED00E070470146A8
:1014B0000846002809DB00F01F0301229A40430977
:1014C0009B0003F1E023C3F8002100BF70472DE922
:1014D000F05F80460D46164607F0DEF907463946AE
:1014E0002A46334601F00700C0F1070ABAF1040F9B
:1014F00002D94FF0040A01E0C0F1070AD14600F119
:10150000040ABAF1070F02D24FF0000A01E0A0F17D
:10151000030AD4464FF0010A0AFA09FAAAF1010AAD
:101520000AEA020A0AFA0CFA4FF0010B0BFA0CFB5A
:10153000ABF1010B0BEA030B4AEA0B0421464046D0
:1015400007F0B2F9BDE8F09F00BF00F00702064BBC
:1015500019684FF6FF031940044B0B4343EA02217D
:10156000014B196000BF70470CED00E00000FA0568
:1015700010B501F067F90949096801F470614FF489
:10158000807292FAA2F2B2FA82F2D140044A515C1D
:10159000C840044908600846006810BD1844025855
:1015A000E29200081800002410B501F003F9074981
:1015B000096801F07001102292FAA2F2B2FA82F2E6
:1015C000D140034A515CC84010BD0000204402587D
:1015D000E292000870B50146002201200023002499
:1015E0009FED811AB0EE410A9FED7F1AF0EE410A9D
:1015F0007E4D2D6805F003027C4D2D68C5F3053046
:101600007A4D2D1D2D6805F01003784D14352D6889
:10161000C5F3CC0515FB03F501EE105AB8EE411ADF
:10162000B0EE410A22B1012A4DD0022A7DD169E0F3
:101630006E4D283D2D68C5F340152DB36B4D283DEB
:101640002D68C5F3C1066A4D25FA06F4B4FBF0F522
:1016500001EE105AF8EE411A9FED661A80EE012A4B
:10166000624D10352D68C5F3080501EE105AB8EE2D
:10167000411A32EE011AB7EE002A31EE021A21EEBB
:10168000811AF0EE410A1DE0594DB5FBF0F501EE6F
:10169000105AF8EE411A9FED571A80EE012A534D69
:1016A00010352D68C5F3080501EE105AB8EE411A41
:1016B00032EE011AB7EE002A31EE021A21EE811A3B
:1016C000F0EE410A5EE04C4DB5FBF0F501EE105A2C
:1016D000B8EE412A9FED471AC0EE011A434D10356E
:1016E0002D68C5F3080501EE105AB8EE411A31EE27
:1016F000811AF7EE001A31EE211A22EE011AF0EEED
:10170000410A3FE03D4DB5FBF0F501EE105AF8EE11
:10171000411A9FED381A80EE012A344D10352D689C
:10172000C5F3080501EE105A00E00CE0B8EE411ACE
:1017300032EE011AB7EE002A31EE021A21EE811ABA
:10174000F0EE410A1EE02C4DB5FBF0F501EE105A0B
:10175000B8EE412A9FED271AC0EE011A234D10352D
:101760002D68C5F3080501EE105AB8EE411A31EEA6
:10177000811AF7EE001A31EE211A22EE011AF0EE6C
:10178000410A00BF00BF194D10352D68C5F346252D
:101790006D1C01EE105AB8EE411AC0EE811ABCEE73
:1017A000E11A81ED001A114D10352D68C5F306457B
:1017B0006D1C01EE105AB8EE411AC0EE811ABCEE53
:1017C000E11A81ED011A094D10352D68C5F3066542
:1017D0006D1C01EE105AB8EE411AC0EE811ABCEE33
:1017E000E11A81ED021A70BD000000002844025881
:1017F0000090D0030000004600093D0040787D01C4
:1018000070B5014600220120002300249FED811ABB
:10181000B0EE410A9FED7F1AF0EE410A7E4D2D6831
:1018200005F003027C4D2D68C5F305507A4D2D1D42
:101830002D6805F48073784D1C352D68C5F3CC05F3
:1018400015FB03F501EE105AB8EE411AB0EE410A4D
:1018500022B1012A4DD0022A7DD169E06E4D283D8A
:101860002D68C5F340152DB36B4D283D2D68C5F38C
:10187000C1066A4D25FA06F4B4FBF0F501EE105AE4
:10188000F8EE411A9FED661A80EE012A624D183576
:101890002D68C5F3080501EE105AB8EE411A32EE74
:1018A000011AB7EE002A31EE021A21EE811AF0EE8B
:1018B000410A1DE0594DB5FBF0F501EE105AF8EE66
:1018C000411A9FED571A80EE012A534D18352D68A5
:1018D000C5F3080501EE105AB8EE411A32EE011AAE
:1018E000B7EE002A31EE021A21EE811AF0EE410A1B
:1018F0005EE04C4DB5FBF0F501EE105AB8EE412A12
:101900009FED471AC0EE011A434D18352D68C5F3F7
:10191000080501EE105AB8EE411A31EE811AF7EEC1
:10192000001A31EE211A22EE011AF0EE410A3FE0D0
:101930003D4DB5FBF0F501EE105AF8EE411A9FED62
:10194000381A80EE012A344D18352D68C5F3080584
:1019500001EE105A00E00CE0B8EE411A32EE011A26
:10196000B7EE002A31EE021A21EE811AF0EE410A9A
:101970001EE02C4DB5FBF0F501EE105AB8EE412AF1
:101980009FED271AC0EE011A234D18352D68C5F3B7
:10199000080501EE105AB8EE411A31EE811AF7EE41
:1019A000001A31EE211A22EE011AF0EE410A00BFB0
:1019B00000BF194D18352D68C5F346256D1C01EE85
:1019C000105AB8EE411AC0EE811ABCEEE11A81ED50
:1019D000001A114D18352D68C5F306456D1C01EE32
:1019E000105AB8EE411AC0EE811ABCEEE11A81ED30
:1019F000011A094D18352D68C5F306656D1C01EEF9
:101A0000105AB8EE411AC0EE811ABCEEE11A81ED0F
:101A1000021A70BD00000000284402580090D00354
:101A20000000004600093D0040787D012DE9F041AD
:101A3000044600250026206800F00060B0F1006F29
:101A400030D1606E48B1B0F5801F0DD0B0F5001FE9
:101A500010D0B0F5401F15D113E0F948006840F4EC
:101A60000030F74908600FE00221201D05F072FDEB
:101A7000054609E0022104F1240005F003FE0546B5
:101A800002E001E0012500BF00BF55B9EC48243059
:101A9000006820F44010616E0843E9492431086071
:101AA00000E02E43208800F48070B0F5807F2DD1B7
:101AB000606D05281AD2DFE800F0030A101718003D
:101AC000DF48006840F40030DD49086010E0002184
:101AD000201D05F03FFD05460AE0002104F1240029
:101AE00005F0D0FD054603E002E001E0012500BF5E
:101AF00000BF55B9D2482430006820F00700616D5E
:101B00000843CF492431086000E02E43208800F4C8
:101B10000070B0F5007F33D1A06D802817D003DCB2
:101B200040B140281CD10CE0C02817D0B0F5807F10
:101B300016D114E0C248006840F40030C049086083
:101B400010E00021201D05F005FD05460AE00021FA
:101B500004F1240005F096FD054603E002E001E0F3
:101B6000012500BF00BF55B9B5482430006820F4F6
:101B7000E070A16D0843B2492431086000E02E43B3
:101B8000208800F48060B0F5806F38D1D4F8A400CC
:101B9000B0F5800F19D004DC50B1B0F5001F1DD195
:101BA0000DE0B0F5C00F17D0B0F5000F16D114E05E
:101BB000A348006840F40030A149086010E000210B
:101BC000201D05F0C7FC05460AE0002104F12400B1
:101BD00005F058FD054603E002E001E0012500BFE5
:101BE00000BF5DB996482C30006820F46000D4F83E
:101BF000A410084392492C31086000E02E4320884D
:101C000000F40060B0F5006F38D1D4F8A800B0F14E
:101C1000007F19D004DC50B1B0F1807F1DD10DE000
:101C2000B0F1407F17D0B0F1806F16D114E0844836
:101C3000006840F400308249086010E00021201D57
:101C400005F088FC05460AE0002104F1240005F0B7
:101C500019FD054603E002E001E0012500BF00BFD9
:101C60005DB977482C30006820F0E060D4F8A81007
:101C7000084373492C31086000E02E43206800F0CF
:101C80000070B0F1007F27D1A06CA0B1102804D063
:101C9000202809D030280FD10CE06948006840F4B2
:101CA00000306749086009E00221201D05F052FC60
:101CB000054603E002E001E0012500BF00BF55B981
:101CC0005F482030006820F03000A16C08435C4978
:101CD0002031086000E02E43208800F48050B0F5E9
:101CE000805F36D1E06DB0F5005F19D004DC50B1F3
:101CF000B0F5805F1DD10DE0B0F5405F17D0B0F5B5
:101D0000804F16D114E04E48006840F400304C4932
:101D1000086010E00021201D05F01CFC05460AE0CB
:101D2000002104F1240005F0ADFC054603E002E0CB
:101D300001E0012500BF00BF55B9414824300068CB
:101D400020F4E040E16D08433D492431086000E0A3
:101D50002E43208800F40050B0F5005F34D1206E8F
:101D6000B0F5403F1DD007DC68B1B0F5803F0BD027
:101D7000B0F5003F18D10DE0B0F5802F12D0B0F5CE
:101D8000A02F11D10FE011E00121201D05F0E2FB91
:101D900005460BE0012104F1240005F073FC054623
:101DA00004E003E002E001E0012500BF00BF55B9F7
:101DB00023482430006820F4E020216E08432049A5
:101DC0002431086000E02E43208800F48040B0F504
:101DD000804F38D1D4F8AC00B0F1405F1DD007DCA3
:101DE00068B1B0F1805F0BD0B0F1005F18D10DE0A9
:101DF000B0F1804F12D0B0F1A04F11D10FE011E03F
:101E00000121201D05F0A6FB05460BE0012104F190
:101E1000240005F037FC054604E003E002E001E0A1
:101E2000012500BF00BF6DB905482C30006820F0C7
:101E3000E040D4F8AC10084301492C31086002E0BE
:101E40002C4402582E43208800F40040B0F5004F87
:101E500026D1E06E98B1B0F1805F03D0B0F1005FA1
:101E60000ED106E0FA48006840F40030F8490860F6
:101E700008E00121201D05F06DFB054602E001E0B0
:101E8000012500BF00BF55B9F1482430006820F09B
:101E90004050E16E0843EE492431086000E02E43D3
:101EA000206800F08070B0F1807F27D1606CA0B115
:101EB000012804D0022809D003280FD10CE0E448FF
:101EC000006840F40030E249086009E00221201D6A
:101ED00005F040FB054603E002E001E0012500BFFC
:101EE00000BF55B9DA482030006820F00300616C6B
:101EF0000843D7492031086000E02E43206800F4F1
:101F00008000B0F5800F7DD1D248006840F4807029
:101F1000D0490860FFF754F8074606E0FFF750F88D
:101F2000C01B642801D9032505E0CA48006800F4F5
:101F300080700028F2D000BF8DBBC54844300068D7
:101F400000F44070B4F8B01001F44071884214D02D
:101F5000BF484430006820F44078BD4844300068F1
:101F600040F48030BA49443108600846006820F4E3
:101F7000803008600846C0F80080D4F8B000B0F5A2
:101F8000807F15D1FFF71CF8074609E0FFF718F826
:101F9000C01B41F28831884202D9032507E038E0AE
:101FA000AB4844300068C0F340000028EED000BFCA
:101FB0004DBB00BFB4F8B00000F44070B0F5407FF6
:101FC0000ED1A3481C38006820F47C51A24AD4F8F2
:101FD000B000104041EA10109D491C39086007E02C
:101FE0009B481C38006820F47C5099491C390860D3
:101FF000974844300068B4F8B010C1F30B010843AF
:10200000934901E006E002E04431086002E02E431B
:1020100000E02E43207800F0010068B3A06F18287C
:1020200019D005DC48B1082808D0102816D10BE0DB
:10203000202811D0282811D10FE011E00121201D06
:1020400005F088FA05460BE0012104F1240005F0B3
:1020500019FB054604E003E002E001E0012500BFB2
:1020600000BF55B97A482830006820F03800A16FC9
:10207000084377492831086000E02E43207800F0BB
:102080000200022828D1606F062815D2DFE800F090
:1020900003040A11121311E00121201D05F05AFA60
:1020A00005460BE0012104F1240005F0EBFA05469A
:1020B00004E003E002E001E0012500BF00BF55B9E4
:1020C00063482830006820F00700616F08436049CA
:1020D0002831086000E02E43207800F00400042836
:1020E0002AD1D4F89000062815D2DFE800F00304C6
:1020F0000A11121311E00121201D05F02BFA0546EB
:102100000BE0012104F1240005F0BCFA054604E0CF
:1021100003E002E001E0012500BF00BF5DB94C48CB
:102120002C30006820F00700D4F89010084348498C
:102130002C31086000E02E43207800F02000202899
:1021400036D1D4F88C00B0F1405F1DD007DC68B107
:10215000B0F1805F0BD0B0F1005F18D10DE0B0F1AD
:10216000804F12D0B0F1A04F11D10FE011E000214B
:10217000201D05F0EFF905460BE0022104F12400D3
:1021800005F080FA054604E003E002E001E00125E5
:1021900000BF00BF5DB92E482830006820F0E04045
:1021A000D4F88C1008432A492831086000E02E43F7
:1021B000207800F04000402836D1D4F89800B0F5DF
:1021C000406F1DD007DC68B1B0F5806F0BD0B0F563
:1021D000006F18D10DE0B0F5805F12D0B0F5A05FB0
:1021E00011D10FE011E00021201D05F0B3F90546E3
:1021F0000BE0022104F1240005F044FA054604E056
:1022000003E002E001E0012500BF00BF5DB9104816
:102210002C30006820F4E050D4F8981008430C49A2
:102220002C31086000E02E43207800F080008028E8
:102230003BD1D4F89C00B0F5C04F24D00EDCA0B147
:10224000B0F5005F12D0B0F5804F1FD114E0000050
:102250002C44025800480258FFFCFF0FB0F5004F15
:1022600012D0B0F5204F11D10FE011E00021201D58
:1022700005F070F905460BE0022104F1240005F099
:1022800001FA054604E003E002E001E0012500BF99
:1022900000BF4DB9B248006820F46040D4F89C10EB
:1022A0000843AF49086000E02E43207800F00800A2
:1022B000082816D1D4F88000B0F5805F06D102213D
:1022C00004F1240005F0DEF906430AE0A448001FEB
:1022D000006820F44050D4F880100843A049091F3A
:1022E0000860207800F01000102814D1D4F8940071
:1022F000B0F5807F06D1022104F1240005F0C2F977
:10230000064308E09648006820F44070D4F8941022
:10231000084393490860206800F40020B0F5002FBE
:1023200026D1D4F8A00030B1B0F5803F09D0B0F587
:10233000003F0ED10CE00021201D05F00BF90546F1
:1023400009E0022104F1240005F09CF9054602E0B1
:1023500001E0012500BF00BF4DB98148006820F4AD
:102360004030D4F8A01008437D49086000E02E43B7
:10237000206800F48020B0F5802F2DD1D4F884009F
:10238000B0F5801F06D0B0F5001F0CD0B0F5401F8F
:1023900011D10FE072482C38006840F400307049C9
:1023A0002C39086009E0012104F1240005F06AF9E4
:1023B000054602E001E0012500BF00BF5DB96848A5
:1023C000001F006820F44010D4F8841008436449CA
:1023D000091F086000E02E43206800F48030B0F54B
:1023E000803F24D1E06C18B1B0F5803F0FD108E0F8
:1023F0005B482C38006840F4003059492C3908609B
:1024000007E00221201D05F0A5F8054601E00125A1
:1024100000BF00BF55B952480C38006820F4803026
:10242000E16C08434E490C39086000E02E432068F7
:1024300000F00050B0F1005F05D1022104F124004A
:1024400005F020F90643206800F40030B0F5003FA5
:1024500027D1E06FA0B1B0F5807F06D0B0F5007F46
:102460000CD0B0F5407F0CD109E03D482C38006815
:1024700040F400303A492C39086004E003E002E0FF
:1024800001E0012500BF00BF55B93548001F0068B5
:1024900020F44070E16F08433149091F086000E0F3
:1024A0002E43206800F48010B0F5801F09D12C481D
:1024B0000838006820F00040216F08432849083997
:1024C0000860206800F08050B0F1805F0AD1244895
:1024D0004838006820F48040D4F8B41008432049FC
:1024E00048390860206800F40010B0F5001F09D1D9
:1024F0001B480838006820F08070A16E0843184916
:1025000008390860206800F08040B0F1804F11D198
:1025100000BF13484838006820F40040104948398B
:10252000086008460068D4F8B81008430C494839D8
:10253000086000BF206800F00040B0F1004F09D1F2
:1025400007480C38006820F04050216D08430449CA
:102550000C39086016B90020BDE8F0810120FBE7C6
:102560005844025870B504460D4600268D48006850
:1025700000F00700A8420ED28A48006820F0070049
:102580002843884908600846006800F00700A84210
:1025900001D0012070BD207800F00200022807D190
:1025A0008148006820F00F00E16808437E49086018
:1025B000207800F00100002851D07B48006820F40A
:1025C0007060A1680843784908606068022807D1F4
:1025D000754818380068C0F34040F8B90120D9E7C1
:1025E0006068032807D1704818380068C0F340605D
:1025F000A0B90120CEE76068012807D16A481838E1
:102600000068C0F3002048B90120C3E766481838C5
:102610000068C0F3800008B90120BBE762480838B1
:10262000006820F00700616808435F4908390860C6
:10263000FEF7C6FC06466068022811D108E0FEF7E6
:10264000BFFC801B41F28831884201D90320A1E7F9
:1026500055480838006800F038001028EFD13AE0FB
:102660006068032811D108E0FEF7AAFC801B41F244
:102670008831884201D903208CE74B48083800682C
:1026800000F038001828EFD125E06068012811D14A
:1026900008E0FEF795FC801B41F28831884201D9A1
:1026A000032077E740480838006800F03800082821
:1026B000EFD110E008E0FEF783FC801B41F2883187
:1026C000884201D9032065E737480838006800F0E0
:1026D00038000028EFD13348006800F00700A84216
:1026E0000ED93048006820F0070028432D490860C3
:1026F0000846006800F00700A84201D0012049E721
:10270000207800F00400042807D12748006820F052
:1027100070002169084324490860207800F008000F
:10272000082809D12048001D006820F07000616968
:1027300008431D49091D0860207800F0100010288A
:1027400009D11948001D006820F4E060A169084320
:102750001549091D0860207800F02000202809D1C3
:1027600011480830006820F07000E16908430E4904
:102770000831086000F066F80B49096801F47061DF
:102780004FF4807292FAA2F2B2FA82F2D140074A72
:10279000515CC840064908600F20FEF731FC00205C
:1027A000F8E600000020005218440258E2920008A7
:1027B0001800002410B5FEF7DBFE0949096801F096
:1027C0000F01012292FAA2F2B2FA82F2D140054A36
:1027D000515CC840044908600846006810BD00000C
:1027E00018440258E29200081C00002410B5FFF7BC
:1027F000E1FF0749096801F07001102292FAA2F284
:10280000B2FA82F2D140034A515CC84010BD0000C8
:102810001C440258E292000810B5FFF7CBFF0749AD
:10282000096801F4E0614FF4807292FAA2F2B2FA00
:1028300082F2D140024A515CC84010BD1C4402588B
:10284000E292000870B5012500EE905A00220121A5
:1028500000230024DFED861AB0EE610ADFED841A52
:10286000B0EE611A0020834D2D6805F0380535B1B2
:10287000082D15D0102D15D0182D7CD114E07D4DCC
:10288000103D2D68C5F3401545B17A4D103D2D68BA
:10289000C5F3C106784D25FA06F000E07648E5E07C
:1028A0007648E3E07648E1E0724D18352D6805F092
:1028B0000302704D18352D68C5F305116D4D1C359B
:1028C0002D6805F001036B4D24352D68C5F3CC054B
:1028D00015FB03F501EE905AF8EE611AB0EE610AAD
:1028E00022B1012A4FD0022A7DD16BE0614D103D0B
:1028F0002D68C5F340152DB35E4D103D2D68C5F311
:10290000C1065D4D25FA06F4B4FBF1F501EE905ACF
:10291000B8EE612ADFED5B1AC0EE212A554D203555
:102920002D68C5F3080501EE905AF8EE611A72EEB3
:10293000A11AF7EE002A71EEA21A62EE211AB0EE89
:10294000611A1FE04C4DB5FBF1F501EE905AB8EE5F
:10295000612ADFED4C1AC0EE212A464D20352D6844
:10296000C5F3080501EE905AF8EE611A72EEA11A4D
:10297000F7EE002A00E077E071EEA21A62EE211A6B
:10298000B0EE611A5EE03D4DB5FBF1F501EE905AF7
:10299000B8EE612ADFED3B1AC0EE212A354D203515
:1029A0002D68C5F3080501EE905AF8EE611A72EE33
:1029B000A11AF7EE002A71EEA21A62EE211AB0EE09
:1029C000611A3FE02E4DB5FBF1F501EE905AB8EEDD
:1029D000612ADFED2C1AC0EE212A264D20352D6804
:1029E000C5F3080500E00EE001EE905AF8EE611A1A
:1029F00072EEA11AF7EE002A71EEA21A62EE211A07
:102A0000B0EE611A1EE01D4DB5FBF1F501EE905AD6
:102A1000F8EE612ADFED1B1A80EE212A154D2035D4
:102A20002D68C5F3080501EE905AF8EE611A72EEB2
:102A3000211AB7EE002A71EE821A62EEA11AB0EEE8
:102A4000611A00BF00BF0B4D20352D68C5F3462528
:102A50006D1C00EE905AF8EE601A81EE212AFCEE11
:102A6000C21A11EE900A01E0044800BF00BF70BD19
:102A700000000000104402580090D00300093D00FF
:102A800040787D010000004670B50446002520789E
:102A900000F00100002872D0F948006800F038000A
:102AA00010280CD0F648006800F03800182812D121
:102AB000F3481830006800F0030002280BD1F048FA
:102AC00010380068C0F3404000286DD060680028CE
:102AD0006AD1012070BD00BF6068B0F5803F08D1A9
:102AE000E7481038006840F48030E5491039086044
:102AF0002EE0606868B9E2481038006820F4803041
:102B0000DF49103908600846006820F4802008601A
:102B10001EE06068B0F5A02F0DD1D94810380068CC
:102B200040F48020D649103908600846006840F417
:102B3000803008600CE0D2481038006820F4803003
:102B4000CF49103908600846006820F480200860EA
:102B500000BF6068A0B1FEF733FA054608E0FEF753
:102B60002FFA401B41F28831884201D90320B1E796
:102B7000C34810380068C0F340400028EFD013E08D
:102B8000FEF71EFA054608E0FEF71AFA401B41F26E
:102B90008831884201D903209CE7B9481038006881
:102BA000C0F340400028EFD1207800F00200022856
:102BB00047D1B348006800F0380058B1B048006809
:102BC00000F0380018283ED1AD481830006800F0F9
:102BD0000300B8BBAA4810380068C0F3800018B1E1
:102BE000E06808B9012075E7A5481038006820F0B2
:102BF0001900E1680843A24910390860FEF7E0F9BE
:102C0000054606E0FEF7DCF9401B022801D9032047
:102C100060E79B4810380068C0F380000028F1D0BE
:102C200097480C38006820F47C304FF47C3292FADC
:102C3000A2F2B2FA82F221699140084390490C391C
:102C400008604AE0FFE7E06868B38D481038006824
:102C500020F01900E1680843894910390860FEF73F
:102C6000AFF9054606E0FEF7ABF9401B022801D993
:102C700003202FE7824810380068C0F38000002846
:102C8000F1D07F480C38006820F47C304FF47C325F
:102C900092FAA2F2B2FA82F221699140084378498D
:102CA0000C39086019E076481038006820F00100FF
:102CB000734910390860FEF783F9054606E0FEF710
:102CC0007FF9401B022801D9032003E76C48103824
:102CD0000068C0F380000028F1D1207800F01000D7
:102CE000102877D16648006800F0380008280CD01A
:102CF0006348006800F03800182823D16048183075
:102D0000006800F0030001281CD15D4810380068FD
:102D1000C0F3002020B1E069802801D00120D9E66D
:102D200057480C38006820F0F8404FF0F84292FA0B
:102D3000A2F2B2FA82F2216A9140084350490C395A
:102D4000086047E0E06958B34D481038006840F02B
:102D500080004B4910390860FEF732F9054606E05D
:102D6000FEF72EF9401B022801D90320B2E64448A1
:102D700010380068C0F300200028F1D040480C381B
:102D8000006820F0F8404FF0F84292FAA2F2B2FA4E
:102D900082F2216A9140084339490C39086019E0F0
:102DA00037481038006820F0800035491039086035
:102DB000FEF706F9054606E0FEF702F9401B022879
:102DC00001D9032086E62E4810380068C0F30020A1
:102DD0000028F1D1207800F00800082836D1606979
:102DE000D0B127486430006840F0010024496431C4
:102DF0000860FEF7E5F8054606E0FEF7E1F8401B3F
:102E0000022801D9032065E61D4864300068C0F33C
:102E100040000028F1D019E019486430006820F023
:102E20000100174964310860FEF7CAF8054606E05C
:102E3000FEF7C6F8401B022801D903204AE61048D5
:102E400064300068C0F340000028F1D1207800F021
:102E50002000202834D1A069D8B109481038006872
:102E600040F48050064910390860FEF7A9F805467D
:102E700008E0FEF7A5F8401B022803D9032029E645
:102E800010440258AF480068C0F340300028F0D02A
:102E900016E0AC48006820F48050AA490860FEF7AC
:102EA0008FF8054606E0FEF78BF8401B022801D993
:102EB00003200FE6A3480068C0F340300028F2D199
:102EC000207800F0040004287DD19F48006840F479
:102ED00080709D490860FEF773F8054606E0FEF72E
:102EE0006FF8401B642801D90320F3E59648006879
:102EF00000F480700028F2D000BFA068012808D13B
:102F000090487030006840F001008E4970310860D0
:102F10002DE0A06868B98B487030006820F001008F
:102F20008849703108600846006820F00400086095
:102F30001DE0A06805280DD182487030006840F07F
:102F400004008049703108600846006840F00100C4
:102F500008600CE07B487030006820F0010079497F
:102F6000703108600846006820F00400086000BF67
:102F7000A068A0B1FEF724F8054608E0FEF720F8A7
:102F8000401B41F28831884201D90320A2E56D48F7
:102F900070300068C0F340000028EFD013E0FEF767
:102FA0000FF8054608E0FEF70BF8401B41F28831A8
:102FB000884201D903208DE5624870300068C0F373
:102FC00040000028EFD1606A00287CD05D481030B6
:102FD000006800F03800182876D0606A022874D1A2
:102FE0005848006820F0807056490860FDF7E8FFF7
:102FF000054606E0FDF7E4FF401B022801D9032047
:1030000068E550480068C0F340600028F2D100BF76
:10301000D4E90A1041EA00104A492831096840F20F
:10302000F33291430843474928310860208E401EFF
:10303000C0F30800616B491E4FF47E4202EA412151
:103040000843218F491ED20102EA014108433C2175
:10305000095D491E120202EA016108433949303113
:10306000086000BF081D00684FF6F87188434FF6EE
:10307000F87292FAA2F2B2FA82F2A16C914008437D
:103080003049343108602F482C30006820F00C00A3
:10309000216C08432B492C3108600846006820F059
:1030A0000200616C084327492C310860084600681B
:1030B00040F4803008600846006840F40030086042
:1030C0000846006802E03BE038E01FE040F4802062
:1030D00008600846006840F0010008601948006870
:1030E00040F0807017490860FDF76AFF054606E06A
:1030F000FDF766FF401B022801D90320EAE41148CE
:103100000068C0F340600028F2D019E00D48006864
:1031100020F080700B490860FDF752FF054606E07D
:10312000FDF74EFF401B022801D90320D2E40548D9
:103130000068C0F340600028F2D101E00120C9E43A
:103140000020C7E4004402580048025870B5044605
:103150000D460CB9012070BD94F82C0028B9002050
:1031600084F82D00204600F019F8022084F82C0085
:10317000211D2068FDF7C3FC2946D4E90002FDF7B4
:1031800013FD0548006840F0004003490860012035
:1031900084F82C000020DEE70040005210B586B015
:1031A000044600BF4648006840F0020044490860F9
:1031B0000846006800F00200009000BF00BF00BF9A
:1031C0003F482038006840F480503D49203908606D
:1031D0000846006800F48050009000BF00BF00BFA8
:1031E00037481438006840F0040035491439086045
:1031F0000846006800F00400009000BF00BF00BF58
:103200000846006840F0080008600846006800F0C2
:103210000800009000BF00BF00BF0846006840F0F3
:10322000100008600846006800F01000009000BF21
:1032300000BF00BF0846006840F020000860084654
:10324000006800F02000009000BF00BF00BF0846EB
:10325000006840F0400008600846006800F0400048
:10326000009000BF00BF0D200190022002900120BD
:103270000390032004900C20059001A91148FDF74C
:1032800067FD4CF20370019001A90F48FDF760FD46
:103290004FF68370019001A90C48FDF759FD4FF6D8
:1032A0003F00019001A90A48FDF752FD48F237108E
:1032B000019001A90748FDF74BFD06B010BD0000C5
:1032C000F444025800080258000C0258001002583A
:1032D000001402580018025870B504460D4694F8C0
:1032E0002C00022800D170BD022084F82C00294651
:1032F0002068FDF73EFC012084F82C000020F2E756
:1033000070B504460D46164694F82C00022800D1EC
:1033100070BD022084F82C00324629462068FDF753
:103320002FFC2868022803D1052084F82C0002E035
:10333000012084F82C000020EAE7000070B5044664
:103340000E4615460CB9012070BD94F8450028B909
:10335000002084F84400204600F024F804F108011D
:103360002068FDF75DFB3146A2682068FDF798FBF9
:103370002946E36AD4E90102FDF72EFBA168206823
:1033800050F8210040F00100A268216841F82200B5
:103390000348006840F00040014908600020D3E77E
:1033A0000040005210B586B0044600BF20480068B7
:1033B00040F480501E4908600846006800F48050C0
:1033C000009000BF00BF00BF19480C30006840F0FB
:1033D000080017490C3108600846006800F0080032
:1033E000009000BF00BF00BF0846006840F010001A
:1033F00008600846006800F01000009000BF00BFA1
:103400004EF2B3700190022002900120039003203D
:1034100004900C20059001A90648FDF799FC4FF691
:103420008070019001A90448FDF792FC06B010BD20
:10343000D4440258000C025800100258042808D145
:103440004FF0E021096941F004014FF0E0221161E1
:1034500007E04FF0E021096921F004014FF0E0227C
:103460001161704770B504462546681EB0F1807F33
:1034700001D301200FE0681E4FF0E02148610F21C9
:103480004FF0FF3005F010FA00204FF0E021886186
:1034900007200861002070BD704770470146002278
:1034A000002391F8792091F87A3042EA03007047BE
:1034B0002DE9F04104462068C56920680768206846
:1034C000866805F00F08B8F1000F0DD105F0200057
:1034D00050B107F0200010B906F0805020B120460E
:1034E00004F021FCBDE8F081B8F1000F72D05D4816
:1034F000304018B907F4907000287AD005F0010028
:1035000048B107F4807030B1012021680862E06F93
:1035100040F00100E06705F0020048B106F001004C
:1035200030B1022021680862E06F40F00400E067DB
:1035300005F0040048B106F0010030B10420216814
:103540000862E06F40F00200E06705F0080078B123
:1035500007F0200028B906F0805010B906F00100ED
:1035600030B1082021680862E06F40F00800E06791
:10357000E06F70B305F0200040B107F0200010B9F3
:1035800006F0805010B1204604F0CDFBE06F00F053
:10359000080020B92068806800F0400018B3204679
:1035A00004F0A1FB2068806800F04000B8B12068FA
:1035B000806820F0400021688860606F58B12A4818
:1035C000616F0865606FFDF73DFB10B1606F016DC5
:1035D00088470DE00DE02046FFF75FFF08E020463A
:1035E000FFF75BFF04E02046FFF757FF0020E0678E
:1035F00078E705F4801078B106F4800060B14FF4EC
:10360000801021680862202084F8790084F87A000C
:103610002046FFF741FF65E705F0800048B107F05D
:10362000800010B906F4000018B1204605F092F8A9
:1036300058E705F0400030B107F0400018B12046CF
:1036400004F061FB4EE705F4000040B107F0804054
:1036500028B12068006820F080402168086000BF21
:1036600040E7000001000010CF7C000810B50446C0
:103670000CB9012010BDA06900B100E000BF94F8B2
:10368000790028B9002084F87800204600F02AF854
:10369000242084F879002068006820F00100216867
:1036A0000860204604F084FB012800D1E2E7606B4B
:1036B00010B1204604F05CFA2068406820F4904085
:1036C000216848602068806820F02A0021688860AE
:1036D0002068006840F0010021680860204604F07E
:1036E000BCFAC7E710B586B0044621492068884275
:1036F0003BD100BF1F48006840F001001D49086031
:103700000846006800F00100009000BF00BF00BF45
:1037100018481030006840F0100016491031086059
:103720000846006800F01000009000BF00BF4FF492
:10373000007001900220029001200390022004906A
:103740000720059001A90C48FDF702FB4FF48060AB
:10375000019001A90848FDF7FBFA2520FDF7A7FE17
:10376000032211462520FDF7B2FE06B010BD000071
:1037700000100140E04402580000025810B5034612
:1037800093F87A00202867D101B10AB9012010BD51
:1037900000BF93F87800012801D10220F7E701204B
:1037A00083F8780000BF5966A3F86820A3F86A2060
:1037B00000BF9868B0F5805F0AD1186920B940F25F
:1037C000FF10A3F86C001CE0FF20A3F86C0018E0C9
:1037D000986848B9186918B9FF20A3F86C0010E080
:1037E0007F20A3F86C000CE09868B0F1805F08D1EE
:1037F000186918B97F20A3F86C0002E03F20A3F8F5
:103800006C0000BF0020D867222083F87A0000BF38
:10381000002083F8780000BF1868806840F001003D
:103820001C68A0601868006800F0005060B118685B
:10383000006840F480701C6820601868806840F060
:1038400080501C68A06005E01868006840F4907023
:103850001C68206000209AE7022098E71D4A016852
:10386000914236D11C49098801F4004189BB1A49AB
:10387000098801F4804171B1184909780A2903D0F7
:103880000021154A118024E01349098841F40041C0
:10389000114A11801DE0114909780D2906D10E4900
:1038A000098841F480410C4A118012E00B490978E3
:1038B000094A1288C2F30D02094B99540649098836
:1038C000491C054A118011460988C72901DD0021DC
:1038D00011807047001001402C0000242E000024AD
:1038E000C8000024704700BFFEE7000000B587B0A5
:1038F00000BF2448006840F00100224908600846E3
:10390000006800F00100019000BF00BF00BF084642
:10391000006840F0040008600846006800F00400F9
:10392000019000BF00BF00BF0846006840F0800063
:1039300008600846006800F08000019000BF00BFEA
:1039400001200290002003900220049003200590A3
:1039500002A90D48FDF7FCF94FF400500290002039
:103960000390012004900320059002A90748FDF769
:10397000EFF90C20029002A90548FDF7E9F907B01C
:1039800000BD0000E0440258000002580008025840
:10399000001C025810B50446012C01D12D490870B5
:1039A0002C480078002839D008212B48FDF7F6FA7A
:1039B00080B104212848FDF7F1FA58B14FF40051C5
:1039C0002648FDF7EBFA28B101212548FDF7E6FA74
:1039D000012823D10A2004F08FFF00201D49087020
:1039E00008211D48FDF7DAFA08B9012010BD0421AD
:1039F0001948FDF7D3FA08B90220F7E74FF4005150
:103A00001648FDF7CBFA08B90320EFE70121144867
:103A1000FDF7C4FA01281BD10420E7E708210E486E
:103A2000FDF7BCFA012813D104210B48FDF7B6FAC3
:103A300001280DD141030948FDF7B0FA012807D14B
:103A400001210748FDF7AAFA10B9012001490870C1
:103A50000020CBE739000024001C0258000802585F
:103A60000000025870B5044600260D4805880D4830
:103A7000006818B1204603F089F80FE00848408834
:103A800045430021084602F0B7FE03F041F8002646
:103A900002E005490C80761CAE42FAD370BD0000EE
:103AA00090020024A80300240000086010B504461A
:103AB000624884716248006850B1204603F090F873
:103AC0005F48C08A5D4908805D48008B488010BD12
:103AD000002C57D1F020594908804FF4A07048803D
:103AE0000846808849F2413188420BD0534880888B
:103AF00045F21031884205D05048808847F28971DC
:103B0000884214D12C204D4908812A2048812B203D
:103B100088810846808845F21031884206D14FF4EA
:103B2000A070464908804FF4F070488081E0434817
:103B3000808845F21051884210D14FF430503F49EF
:103B400008814FF4285048814FF42C5088814FF45D
:103B5000F07008804FF4487048806AE037488088E9
:103B600041F66311884264D12C20344908812B200E
:103B700048812A2088814FF4F07008804FF4487003
:103B8000488056E04FF4A0702C490880F02048800F
:103B90000846808849F2413188420BD02748808806
:103BA00045F21031884205D02448808847F2897157
:103BB000884207D12C20214908812A2048812B20C6
:103BC000888129E01D48808845F21051884210D133
:103BD0004FF43050194908814FF4285048814FF470
:103BE0002C5088814FF4487008804FF4F070488062
:103BF00012E01248808841F6631188420CD12C20D3
:103C00000E4908812A2048812B2088814FF4487072
:103C100008804FF4F07048800848808845F21031E1
:103C2000884206D14FF4F070044908804FF4A07028
:103C30004880002002F0A0FC00BF48E7900200246A
:103C4000A803002470B504460D4616464648006891
:103C500028B132462946204602F0D8FF70BD4348BD
:103C6000808849F2413188420BD04048808845F233
:103C70001031884205D03D48808847F289718842DA
:103C800014D13A49488902F037FF201202F028FF88
:103C9000E0B202F025FF3549888902F02DFF281295
:103CA00002F01EFFE8B202F01BFF54E02F488088AC
:103CB00045F21051884220D12C49488902F01CFF5E
:103CC000201202F00DFF29494989491C88B202F0EF
:103CD00013FFE0B202F004FF2449888902F00CFFD0
:103CE000281202F0FDFE21498989491C88B202F0A0
:103CF00003FFE8B202F0F4FE2DE01C48808841F694
:103D00006311884227D11948807920B91748008863
:103D1000401E001B84B21549488902F0EDFE2012B6
:103D200002F0DEFEE0B202F0DBFE201202F0D8FE6E
:103D3000E0B202F0D5FE0D49888902F0DDFE2812BE
:103D400002F0CEFEE8B202F0CBFE281202F0C8FE6E
:103D5000E8B202F0C5FE0548008905490880891CC3
:103D60000E8000BF7AE70000A80300249002002420
:103D7000FEFF07602DE9F84F05460E4617469846A8
:103D8000DDF828904FF0000B1448006840B143461E
:103D90003A4631462846CDF8009002F05FFF1BE01E
:103DA000781B401C1FFA80FB344613E0214628464E
:103DB00002F022FD02F0ACFE4FF0000A06E00849D6
:103DC000A1F800900AF101001FFA80FADA45F6DB4B
:103DD000601C84B24445E9DDBDE8F88FA8030024E7
:103DE0000000086000B595B003F03AFAFE498880FB
:103DF0000846808818B102F0D5FF02F012BB00BF60
:103E0000FA48006840F00200F84908600846006877
:103E100000F00200019000BF00BF202010900120A0
:103E2000119012900320139010A9F148FCF790FF15
:103E300002F048FBEF48F0490860F0484860002075
:103E400088600021EC48C1600161102141610021BE
:103E50008161C16101624FF4805141620021816240
:103E60004FF48041C1620021016341634FF480112E
:103E700081631120099000200A9055200B900020AA
:103E80000F90152002900020039015200490002030
:103E9000089002AA09A9D848FFF750FA322004F086
:103EA0002BFDD32002F028FE02F034FBCE4988809F
:103EB00002F030FBCC49888002F02CFBCA49888094
:103EC000084680884FF6FF7101EA0020C6498880C5
:103ED00002F020FBC44989880843C349888008460A
:103EE000808849F2413188427DD0042002F004FEEE
:103EF00002F010FBBC49888002F00CFBBA498880B4
:103F000002F008FBB8498880084680884FF6FF71A8
:103F100001EA0020B449888002F0FCFAB24989889D
:103F20000843B14988800846808848F25251884247
:103F300003D147F28970AC498880AB48808847F24A
:103F400089718842D0D0D42002F0D6FD02F0E2FA86
:103F5000A549888002F0DEFAA349888002F0DAFAE7
:103F6000A1498880084680884FF6FF7101EA002049
:103F70009D49888002F0CEFA9B49898808439A4976
:103F800088800846808845F2103188426BD05521E0
:103F90004FF4704002F0C6FDAA214FF2010002F07A
:103FA000C1FD52214FF2020002F0BCFD08214FF288
:103FB000030002F0B7FD01214FF2040002F0B2FD50
:103FC0004FF4454002F098FD02F0A4FA864988803B
:103FD000084680884FF6FF7101EA002082498880F8
:103FE0004CF2015000E03EE002F086FD02F092FA51
:103FF0007D49898808437C498880052004F07CFC41
:1040000079488088B0F5004F03D145F210507649C9
:1040100088807548808845F21051884223D0A120BD
:1040200002F06AFD02F076FA6F49888002F072FAB7
:104030006D498880084680884FF6FF7101EA0020AC
:104040006949888002F066FA6749898808436649A9
:1040500088800846808845F26171884203D141F624
:104060006310614988806048818865A0FCF762FA26
:104070005D48808849F2413188427CD1CF2002F0EE
:104080003BFD002002F02CFDC12002F029FD302074
:1040900002F026FDED2002F02FFD642002F020FD4D
:1040A000032002F01DFD122002F01AFD812002F013
:1040B00017FDE82002F020FD852002F011FD102000
:1040C00002F00EFD7A2002F00BFDCB2002F014FD71
:1040D000392002F005FD2C2002F002FD002002F044
:1040E000FFFC342002F0FCFC022002F0F9FCF72077
:1040F00002F002FD202002F0F3FCEA2002F0FCFCBA
:10410000002002F0EDFC002002F0EAFCC02002F0EA
:10411000F3FC1B2002F0E4FCC12002F0EDFC0120C6
:1041200002F0DEFCC52002F0E7FC302002F0D8FCF3
:10413000302002F0D5FCC72002F0DEFCB72002F0F0
:10414000CFFC362002F0D8FC482002F0C9FC3A200F
:1041500002F0D2FC552002F0C3FCB12002F0CCFCEE
:10416000002002F0BDFC1A2002F0BAFCB62002F0DA
:10417000C3FC0A2000E0AEE002F0B2FCA22002F094
:10418000AFFCF22002F0B8FC002002F0A9FC2620CF
:1041900002F0B2FC012002F0A3FCE02002F0ACFC33
:1041A0000F2002F09DFC2A2002F09AFC282002F049
:1041B00097FC082002F094FC0E2002F091FC0820ED
:1041C00002F08EFC542002F08BFCA92002F088FC47
:1041D000432002F085FC0A2002F082FC0F2002F04E
:1041E0007FFC002014E0000090020024E04402580C
:1041F00000040258004000524402002404410052CE
:10420000204C43442049443A25780D0A0000000020
:1042100002F066FC002002F063FC002002F060FC6B
:10422000002002F05DFCE12002F066FC002002F0BC
:1042300057FC152002F054FC172002F051FC072017
:1042400002F04EFC112002F04BFC062002F048FC6C
:104250002B2002F045FC562002F042FC3C2002F0EC
:104260003FFC052002F03CFC102002F039FC0F203E
:1042700002F036FC3F2002F033FC3F2002F030FC1D
:104280000F2002F02DFC2B2002F036FC002002F063
:1042900027FC002002F024FC012002F021FC3F203A
:1042A00002F01EFC2A2002F027FC002002F018FC7D
:1042B000002002F015FC002002F012FCEF2002F0BA
:1042C0000FFC112002F018FC782004F015FB2920C7
:1042D00002F012FC91E5FE48808847F2897188421D
:1042E0007ED1112002F008FC782004F005FB362076
:1042F00002F002FC002002F0F3FB3A2002F0FCFB8B
:10430000052002F0EDFBB22002F0F6FB0C2002F0DB
:10431000E7FB0C2002F0E4FB002002F0E1FB33207D
:1043200002F0DEFB332002F0DBFBB72002F0E4FBFF
:10433000352002F0D5FBBB2002F0DEFB322002F07C
:10434000CFFBC02002F0D8FB0C2002F0C9FBC2203A
:1043500002F0D2FB012002F0C3FBC32002F0CCFB31
:10436000102002F0BDFBC42002F0C6FB202002F0AA
:10437000B7FBC62002F0C0FB0F2002F0B1FBD0203B
:1043800002F0BAFBA42002F0ABFBA12002F0A8FBD4
:10439000E02002F0B1FBD02002F0A2FB002002F0EE
:1043A0009FFB022002F09CFB072002F099FB0A20F1
:1043B00002F096FB282002F093FB322002F090FBE3
:1043C000442002F08DFB422002F08AFB062002F01E
:1043D00087FB0E2002F084FB122002F081FB00E03C
:1043E00054E0142002F07CFB172002F079FBE1205E
:1043F00002F082FBD02002F073FB002002F070FB81
:10440000022002F06DFB072002F06AFB0A2002F096
:1044100067FB282002F064FB312002F061FB54208E
:1044200002F05EFB472002F05BFB0E2002F058FB1F
:104430001C2002F055FB172002F052FB1B2002F05B
:104440004FFB1E2002F04CFB2A2002F055FB0020FF
:1044500002F046FB002002F043FB002002F040FB8C
:10446000EF2002F03DFB2B2002F046FB002002F083
:1044700037FB002002F034FB012002F031FB3F202B
:1044800002F02EFB292002F037FBB6E4904880882A
:1044900045F21031884240F07C87ED2002F02CFB81
:1044A000012002F01DFBFE2002F01AFBEE2002F0BC
:1044B00023FBDE2002F014FB212002F011FBF1208F
:1044C00002F01AFB012002F00BFBDF2002F014FBCC
:1044D000102002F005FBC42002F00EFB8F2002F03A
:1044E000FFFAC62002F008FB002002F0F9FAE220F1
:1044F00002F0F6FAE22002F0F3FAE22002F0F0FA1B
:10450000BF2002F0F9FAAA2002F0EAFAB02002F085
:10451000F3FA0D2002F0E4FA002002F0E1FA0D2097
:1045200002F0DEFA002002F0DBFA112002F0D8FAE5
:10453000002002F0D5FA192002F0D2FA002002F091
:10454000CFFA212002F0CCFA002002F0C9FA2D2087
:1045500002F0C6FA002002F0C3FA3D2002F0C0FAD1
:10456000002002F0BDFA5D2002F0BAFA002002F04D
:10457000B7FA5D2002F0B4FA002002F0B1FAB120DF
:1045800002F0BAFA802002F0ABFA002002F0A8FA9A
:104590008B2002F0A5FA002002F0A2FA962002F089
:1045A0009FFA002002F09CFAB22002F0A5FA002047
:1045B00002F096FA002002F093FA022002F090FA3C
:1045C000002002F08DFA032002F08AFA002002F0A7
:1045D00087FAB32002F090FA002002F081FA00205E
:1045E00002F07EFA002002F07BFA002002F078FA56
:1045F000002002F075FA002002F072FA002002F0AA
:104600006FFA002002F06CFA002002F069FA002034
:1046100002F066FA002002F063FA002002F060FA6D
:10462000002002F05DFA002002F05AFA002002F0A9
:1046300057FA002002F054FA002002F051FA00204C
:1046400002F04EFA002002F04BFA002002F048FA85
:10465000002002F045FA002002F042FA002002F0A9
:104660003FFA002002F03CFAB42002F045FA8B2019
:1046700002F036FA002002F033FA962002F030FA07
:10468000002002F02DFAA12002F02AFA002002F008
:1046900027FAB52002F030FA022002F021FA0020B9
:1046A00002F01EFA032002F01BFA002002F018FAB2
:1046B000042002F015FA002002F012FAB62002F0EF
:1046C0001BFA002002F00CFA002002F009FA01E0C7
:1046D00090020024B72002F00FFA002002F000FA46
:1046E000002002F0FDF93F2002F0FAF9002002F06C
:1046F000F7F95E2002F0F4F9002002F0F1F96420ED
:1047000002F0EEF9002002F0EBF98C2002F0E8F95B
:10471000002002F0E5F9AC2002F0E2F9002002F0FE
:10472000DFF9DC2002F0DCF9002002F0D9F970207A
:1047300002F0D6F9002002F0D3F9902002F0D0F96F
:10474000002002F0CDF9EB2002F0CAF9002002F0BF
:10475000C7F9DC2002F0C4F9002002F0C1F9B8204A
:1047600002F0CAF9002002F0BBF9002002F0B8F90B
:10477000002002F0B5F9002002F0B2F9002002F0AA
:10478000AFF9002002F0ACF9002002F0A9F90020F6
:1047900002F0A6F9BA2002F0AFF9242002F0A0F945
:1047A000002002F09DF9002002F09AF9002002F0AA
:1047B00097F9C12002F0A0F9202002F091F9002021
:1047C00002F08EF9542002F08BF9002002F088F9F3
:1047D000FF2002F085F9002002F082F9C22002F0E9
:1047E0008BF90A2002F07CF9002002F079F904200C
:1047F00002F076F9002002F073F9C32002F07CF990
:104800003C2002F06DF9002002F06AF93A2002F033
:1048100067F9002002F064F9392002F061F9002004
:1048200002F05EF9372002F05BF9002002F058F93F
:104830003C2002F055F9002002F052F9362002F037
:104840004FF9002002F04CF9322002F049F9002023
:1048500002F046F92F2002F043F9002002F040F95F
:104860002C2002F03DF9002002F03AF9292002F054
:1048700037F9002002F034F9262002F031F9002047
:1048800002F02EF9242002F02BF9002002F028F982
:10489000242002F025F9002002F022F9232002F062
:1048A0001FF9002002F01CF93C2002F019F9002049
:1048B00002F016F9362002F013F9002002F010F988
:1048C000322002F00DF9002002F00AF92F2002F048
:1048D00007F9002002F004F92C2002F001F9002071
:1048E00002F0FEF8292002F0FBF8002002F0F8F8B0
:1048F000262002F0F5F8002002F0F2F8242002F061
:10490000EFF8002002F0ECF8242002F0E9F8002093
:1049100002F0E6F8232002F0E3F8002002F0E0F8CD
:10492000C42002F0E9F8622002F0DAF8002002F078
:10493000D7F8052002F0D4F8002002F0D1F8842046
:1049400002F0CEF8002002F0CBF8F02002F0C8F818
:10495000002002F0C5F8182002F0C2F8002002F092
:10496000BFF8A42002F0BCF8002002F0B9F818202B
:1049700002F0B6F8002002F0B3F8502002F0B0F8D0
:10498000002002F0ADF80C2002F0AAF8002002F09E
:10499000A7F8172002F0A4F8002002F0A1F8952053
:1049A00002F09EF8002002F09BF8F32002F098F845
:1049B000002002F095F8E62002F092F8002002F0C4
:1049C0008FF8C52002F098F8322002F089F8002014
:1049D00002F086F8442002F083F8002002F080F80C
:1049E000652002F07DF8002002F07AF8762002F0CF
:1049F00077F8002002F074F8882002F071F80020A7
:104A000002F06EF8C62002F077F8202002F068F875
:104A1000002002F065F8172002F062F8002002F092
:104A20005FF8012002F05CF8002002F059F8C7207E
:104A300002F062F8002002F053F8002002F050F873
:104A4000002002F04DF8002002F04AF8C82002F0E1
:104A500053F8002002F044F8002002F041F8002052
:104A600002F03EF8002002F03BF8C92002F044F8C2
:104A7000002002F035F8002002F032F8002002F0A9
:104A80002FF8002002F02CF8002002F029F8002076
:104A900002F026F8002002F023F8002002F020F8AF
:104AA000002002F01DF8002002F01AF8002002F0A9
:104AB00017F8002002F014F8002002F011F800208E
:104AC00002F00EF8002002F00BF8002002F008F8C7
:104AD000E02002F011F8162002F002F8002001F0A8
:104AE000FFFF1C2001F0FCFF002001F0F9FF212056
:104AF00001F0F6FF002001F0F3FF362001F0F0FF97
:104B0000002001F0EDFF462001F0EAFF002001F057
:104B1000E7FF522001F0E4FF002001F0E1FF6420F4
:104B200001F0DEFF002001F0DBFF7A2001F0D8FF6A
:104B3000002001F0D5FF8B2001F0D2FF002001F012
:104B4000CFFF992001F0CCFF002001F0C9FFA82081
:104B500001F0C6FF002001F0C3FFB92001F0C0FF43
:104B6000002001F0BDFFC42001F0BAFF002001F0D9
:104B7000B7FFCA2001F0B4FF002001F0B1FFD2203E
:104B800001F0AEFF002001F0ABFFD92001F0A8FF3B
:104B9000002001F0A5FFE02001F0A2FF002001F0BD
:104BA0009FFFF32001F09CFF002001F099FFE1201E
:104BB00001F0A2FF162001F093FF002001F090FF0A
:104BC0001C2001F08DFF002001F08AFF222001F05F
:104BD00087FF002001F084FF362001F081FF0020D4
:104BE00001F07EFF452001F07BFF002001F078FFFF
:104BF000522001F075FF002001F072FF642001F0E7
:104C00006FFF002001F06CFF7A2001F069FF0020A7
:104C100001F066FF8B2001F063FF002001F060FFD0
:104C2000992001F05DFF002001F05AFFA82001F05B
:104C300057FF002001F054FFB92001F051FF002080
:104C400001F04EFFC42001F04BFF002001F048FFAF
:104C5000CA2001F045FF002001F042FFD22001F000
:104C60003FFF002001F03CFFD82001F039FF002079
:104C700001F036FFE02001F033FF002001F030FFAB
:104C8000F32001F02DFF002001F02AFFE22001F0C7
:104C900033FF052001F024FF002001F021FF0B204D
:104CA00001F01EFF002001F01BFF1B2001F018FF88
:104CB000002001F015FF342001F012FF002001F068
:104CC0000FFF442001F00CFF002001F009FF4F20EE
:104CD00001F006FF002001F003FF612001F000FF5A
:104CE000002001F0FDFE792001F0FAFE002001F025
:104CF000F7FE882001F0F4FE002001F0F1FE97207D
:104D000001F0EEFE002001F0EBFEA62001F0E8FE2F
:104D1000002001F0E5FEB72001F0E2FE002001F0E6
:104D2000DFFEC22001F0DCFE002001F0D9FEC7202A
:104D300001F0D6FE002001F0D3FED12001F0D0FE1C
:104D4000002001F0CDFED62001F0CAFE002001F0C7
:104D5000C7FEDD2001F0C4FE002001F0C1FEF320FB
:104D600001F0BEFE002001F0BBFEE32001F0C4FE16
:104D7000052001F0B5FE002001F0B2FE0A2001F08E
:104D8000AFFE002001F0ACFE1C2001F0A9FE0020C7
:104D900001F0A6FE332001F0A3FE002001F0A0FEEA
:104DA000442001F09DFE002001F09AFE502001F009
:104DB00097FE002001F094FE622001F091FE002099
:104DC00001F08EFE782001F08BFE002001F088FEBD
:104DD000882001F085FE002001F082FE972001F07E
:104DE0007FFE002001F07CFEA62001F079FE00206D
:104DF00001F076FEB72001F073FE002001F070FE96
:104E0000C22001F06DFE002001F06AFEC72001F013
:104E100067FE002001F064FED12001F061FE002059
:104E200001F05EFED52001F05BFE002001F058FE8F
:104E3000DD2001F055FE002001F052FEF32001F0CC
:104E40004FFE002001F04CFEE42001F055FE012051
:104E500001F046FE002001F043FE012001F040FE7B
:104E6000002001F03DFE022001F03AFE002001F09A
:104E700037FE2A2001F034FE002001F031FE3C20F4
:104E800001F02EFE002001F02BFE4B2001F028FE49
:104E9000002001F025FE5D2001F022FE002001F03F
:104EA0001FFE742001F01CFE002001F019FE84207A
:104EB00001F016FE002001F013FE932001F010FE19
:104EC000002001F00DFEA22001F00AFE002001F0FA
:104ED00007FEB32001F004FE002001F001FEBE2019
:104EE00001F0FEFD002001F0FBFDC42001F0F8FD03
:104EF000002001F0F5FDCD2001F0F2FD002001F0D1
:104F0000EFFDD32001F0ECFD002001F0E9FDDD20F4
:104F100001F0E6FD002001F0E3FDF32001F0E0FDEB
:104F2000002001F0DDFDE52001F0E6FD002001F0AC
:104F3000D7FD002001F0D4FD002001F0D1FD0020BC
:104F400001F0CEFD022001F0CBFD002001F0C8FDF4
:104F5000292001F0C5FD002001F0C2FD3C2001F038
:104F6000BFFD002001F0BCFD4B2001F0B9FD002089
:104F700001F0B6FD5D2001F0B3FD002001F0B0FDB1
:104F8000742001F0ADFD002001F0AAFD842001F0A5
:104F9000A7FD002001F0A4FD932001F0A1FD002059
:104FA00001F09EFDA22001F09BFD002001F098FD84
:104FB000B32001F095FD002001F092FDBE2001F02C
:104FC0008FFD002001F08CFDC42001F089FD002040
:104FD00001F086FDCD2001F083FD002001F080FD71
:104FE000D32001F07DFD002001F07AFDDC2001F0EE
:104FF00077FD002001F074FDF32001F071FD002029
:1050000001F06EFDE62001F077FD112001F068FD52
:10501000002001F065FD342001F062FD002001F068
:105020005FFD562001F05CFD002001F059FD762067
:1050300001F056FD002001F053FD772001F050FDF6
:10504000002001F04DFD662001F04AFD002001F036
:1050500047FD882001F044FD002001F041FD99202A
:1050600001F03EFD002001F03BFDBB2001F038FDCA
:10507000002001F035FD992001F032FD002001F003
:105080002FFD662001F02CFD002001F029FD5520A8
:1050900001F026FD002001F023FD552001F020FD48
:1050A000002001F01DFD452001F01AFD002001F057
:1050B00017FD432001F014FD002001F011FD4420F4
:1050C00001F00EFD002001F00BFDE72001F014FDC2
:1050D000322001F005FD002001F002FD552001F015
:1050E000FFFC002001F0FCFC762001F0F9FC002020
:1050F00001F0F6FC662001F0F3FC002001F0F0FC6A
:10510000672001F0EDFC002001F0EAFC672001F0CF
:10511000E7FC002001F0E4FC872001F0E1FC002026
:1051200001F0DEFC992001F0DBFC002001F0D8FC4E
:10513000BB2001F0D5FC002001F0D2FC992001F049
:10514000CFFC002001F0CCFC772001F0C9FC00204E
:1051500001F0C6FC442001F0C3FC002001F0C0FCBB
:10516000562001F0BDFC002001F0BAFC232001F024
:10517000B7FC002001F0B4FC332001F0B1FC0020AA
:1051800001F0AEFC452001F0ABFC002001F0A8FCD2
:10519000E82001F0B1FC002001F0A2FC002001F0A9
:1051A0009FFC992001F09CFC002001F099FC8720D5
:1051B00001F096FC002001F093FC882001F090FCA7
:1051C000002001F08DFC772001F08AFC002001F026
:1051D00087FC662001F084FC002001F081FC88201F
:1051E00001F07EFC002001F07BFCAA2001F078FC9D
:1051F000002001F075FCBB2001F072FC002001F0E2
:105200006FFC992001F06CFC002001F069FC662025
:1052100001F066FC002001F063FC552001F060FC09
:10522000002001F05DFC552001F05AFC002001F047
:1052300057FC442001F054FC002001F051FC4420B4
:1052400001F04EFC002001F04BFC552001F048FC21
:10525000002001F045FCE92001F04EFCAA2001F0FD
:105260003FFC002001F03CFC002001F039FC002054
:1052700001F036FC002001F03FFCAA2001F030FCD8
:10528000CF2001F039FC002001F02AFC002001F0C1
:1052900027FC002001F024FC002001F021FC00206C
:1052A00001F01EFC002001F01BFC002001F018FCA6
:1052B000002001F015FC002001F012FC002001F09C
:1052C0000FFC002001F00CFC002001F009FC002084
:1052D00001F006FC002001F003FC002001F000FCBE
:1052E000002001F0FDFB002001F0FAFBF02001F0AE
:1052F00003FC002001F0F4FB502001F0F1FB002042
:1053000001F0EEFB002001F0EBFB002001F0E8FBD8
:10531000F32001F0F1FB002001F0E2FBF92001F0A5
:10532000EBFB062001F0DCFB102001F0D9FB29206B
:1053300001F0D6FB002001F0D3FB3A2001F0DCFBAA
:10534000552001F0CDFB112001F0D6FB642003F0C5
:10535000D3FA292001F0D0FB352001F0CDFB00204D
:1053600001F0BEFB512001F0C7FBFF2001F0B8FBAC
:10537000532001F0C1FB2C2001F0B2FB552001F0BD
:10538000BBFB822001F0ACFB2C2001F0B5FB01F04F
:1053900048B8FE48808845F2105188427ED1552198
:1053A0004FF4704001F0BEFBAA214FF2010001F062
:1053B000B9FB52214FF2020001F0B4FB08214FF279
:1053C000030001F0AFFB01214FF2040001F0AAFB42
:1053D0000D214FF4304001F0A5FB0D214BF20100EF
:1053E00001F0A0FB0D214BF2020001F09BFB3421E8
:1053F0004FF4364001F096FB34214BF2016001F08E
:1054000091FB34214BF2026001F08CFB0D214FF433
:10541000314001F087FB0D214BF2011001F082FBBE
:105420000D214BF2021001F07DFB34214FF4374087
:1054300001F078FB34214BF2017001F073FB342151
:105440004BF2027001F06EFB00214FF4324001F08C
:1054500069FB00214BF2012001F064FB00214BF2BB
:10546000022001F05FFB24214FF4384001F05AFB89
:1054700024214BF6010001F055FB24214BF60200DC
:1054800001F050FB01214FF43F4001F04BFB0F2195
:105490004FF4334001F046FB0F2100E0FEE34BF2F6
:1054A000013001F03FFB0F214BF2023001F03AFBDB
:1054B00034214FF4394001F035FB34214BF6011013
:1054C00001F030FB34214BF6021001F02BFB0821D8
:1054D0004FF4354001F026FB08214BF2015001F05A
:1054E00021FB08214BF2025001F01CFB03214FF479
:1054F000424001F017FB24214FF43A4001F012FB27
:1055000024214BF6012001F00DFB24214BF6022053
:1055100001F008FB00214FF43C4001F003FB78212F
:105520004BF6014001F0FEFA00214BF6024001F07B
:10553000F9FA00214FF43D4001F0F4FA78214BF6DE
:10554000015001F0EFFA00214BF6025001F0EAFAA7
:1055500000214FF43E4001F0E5FA64214BF6016072
:1055600001F0E0FA00214FF4514001F0DBFA332161
:105570004DF2011001F0D6FA00214DF2021001F0B7
:10558000D1FA34214DF2031001F0CCFA00214DF292
:10559000041001F0C7FA3A214DF2051001F0C2FAE9
:1055A00000214DF2061001F0BDFA4A214DF207101C
:1055B00001F0B8FA00214DF2081001F0B3FA5C21B5
:1055C0004DF2091001F0AEFA00214DF20A1001F07F
:1055D000A9FA81214DF20B1001F0A4FA00214DF23D
:1055E0000C1001F09FFAA6214DF20D1001F09AFA6D
:1055F00000214DF20E1001F095FAE5214DF20F1049
:1056000001F090FA01214DF2101001F08BFA1321F4
:105610004DF2111001F086FA01214DF2121001F045
:1056200081FA54214DF2131001F07CFA01214DF260
:10563000141001F077FA82214DF2151001F072FA80
:1056400001214DF2161001F06DFACA214DF217102A
:1056500001F068FA02214DF2181001F063FA0021FE
:105660004DF2191001F05EFA02214DF21A1001F00C
:1056700059FA01214DF21B1001F054FA02214DF2AA
:105680001C1001F04FFA34214DF21D1001F04AFABE
:1056900002214DF21E1001F045FA67214DF21F1054
:1056A00001F040FA02214DF2201001F03BFA842172
:1056B0004DF2211001F036FA02214DF2221001F0D4
:1056C00031FAA4214DF2231001F02CFA02214DF2FF
:1056D000241001F027FAB7214DF2251001F022FA2B
:1056E00002214DF2261001F01DFACF214DF22710B4
:1056F00001F018FA02214DF2281001F013FADE2110
:105700004DF2291001F00EFA02214DF22A1001F09B
:1057100009FAF2214DF22B1001F004FA02214DF2A8
:105720002C1001F0FFF9FE214DF22D1001F0FAF9D5
:1057300003214DF22E1001F0F5F910214DF22F103A
:1057400001F0F0F903214DF2301001F0EBF93321B3
:105750004DF2311001F0E6F903214DF2321001F063
:10576000E1F96D214DF2331001F0DCF900214FF425
:10577000524001F0D7F933214DF2012001F0D2F966
:1057800000214DF2022001F0CDF901E09002002449
:1057900034214DF2032001F0C5F900214DF204201F
:1057A00001F0C0F93A214DF2052001F0BBF90021CA
:1057B0004DF2062001F0B6F94A214DF2072001F022
:1057C000B1F900214DF2082001F0ACF95C214DF255
:1057D000092001F0A7F900214DF20A2001F0A2F9F9
:1057E00081214DF20B2001F09DF900214DF20C209A
:1057F00001F098F9A6214DF20D2001F093F9002156
:105800004DF20E2001F08EF9E5214DF20F2001F04E
:1058100089F901214DF2102001F084F913214DF294
:10582000112001F07FF901214DF2122001F07AF9E7
:1058300054214DF2132001F075F901214DF214208D
:1058400001F070F982214DF2152001F06BF9012170
:105850004DF2162001F066F9CA214DF2172001F031
:1058600061F902214DF2182001F05CF900214DF29E
:10587000192001F057F902214DF21A2001F052F9D6
:1058800001214DF21B2001F04DF902214DF21C20A7
:1058900001F048F934214DF21D2001F043F90221B5
:1058A0004DF21E2001F03EF967214DF21F2001F05C
:1058B00039F902214DF2202001F034F984214DF212
:1058C000212001F02FF902214DF2222001F02AF9C6
:1058D000A4214DF2232001F025F902214DF22420CC
:1058E00001F020F9B7214DF2252001F01BF902212A
:1058F0004DF2262001F016F9CF214DF2272001F0BC
:1059000011F902214DF2282001F00CF9DE214DF2AF
:10591000292001F007F902214DF22A2001F002F9B5
:10592000F2214DF22B2001F0FDF802214DF22C2046
:1059300001F0F8F8FE214DF22D2001F0F3F80321DB
:105940004DF22E2001F0EEF810214DF22F2001F043
:10595000E9F803214DF2302001F0E4F833214DF253
:10596000312001F0DFF803214DF2322001F0DAF8A6
:105970006D214DF2332001F0D5F800214FF4534052
:1059800001F0D0F833214DF2013001F0CBF80021C5
:105990004DF2023001F0C6F834214DF2033001F02F
:1059A000C1F800214DF2043001F0BCF83A214DF26B
:1059B000053001F0B7F800214DF2063001F0B2F8E1
:1059C0004A214DF2073001F0ADF800214DF20830C8
:1059D00001F0A8F85C214DF2093001F0A3F8002194
:1059E0004DF20A3001F09EF881214DF20B3001F0AA
:1059F00099F800214DF20C3001F094F8A6214DF2F7
:105A00000D3001F08FF800214DF20E3001F08AF8D0
:105A1000E5214DF20F3001F085F801214DF21030F3
:105A200001F080F813214DF2113001F07BF80121D3
:105A30004DF2123001F076F854214DF2133001F09E
:105A400071F801214DF2143001F06CF882214DF211
:105A5000153001F067F801214DF2163001F062F8BF
:105A6000CA214DF2173001F05DF802214DF21830D5
:105A700001F058F800214DF2193001F053F80221DD
:105A80004DF21A3001F04EF801214DF21B3001F0B9
:105A900049F802214DF21C3001F044F834214DF256
:105AA0001D3001F03FF802214DF21E3001F03AF8AE
:105AB00067214DF21F3001F035F802214DF2203000
:105AC00001F030F884214DF2213001F02BF8022151
:105AD0004DF2223001F026F8A4214DF2233001F0DE
